{
  "_format": "hh-sol-artifact-1",
  "contractName": "UMAPoolOracle",
  "sourceName": "contracts/UMAPoolOracle.sol",
  "abi": [
    {
      "inputs": [
        {
          "internalType": "address",
          "name": "_testnetUSDC",
          "type": "address"
        },
        {
          "internalType": "uint256",
          "name": "_requiredBond",
          "type": "uint256"
        }
      ],
      "stateMutability": "payable",
      "type": "constructor"
    },
    {
      "anonymous": false,
      "inputs": [
        {
          "indexed": false,
          "internalType": "bytes32",
          "name": "claimId",
          "type": "bytes32"
        },
        {
          "indexed": false,
          "internalType": "address",
          "name": "disputer",
          "type": "address"
        }
      ],
      "name": "ClaimDisputed",
      "type": "event"
    },
    {
      "anonymous": false,
      "inputs": [
        {
          "indexed": false,
          "internalType": "bytes32",
          "name": "claimId",
          "type": "bytes32"
        },
        {
          "indexed": false,
          "internalType": "bool",
          "name": "success",
          "type": "bool"
        },
        {
          "indexed": false,
          "internalType": "address",
          "name": "recipient",
          "type": "address"
        }
      ],
      "name": "ClaimFinalized",
      "type": "event"
    },
    {
      "anonymous": false,
      "inputs": [
        {
          "indexed": false,
          "internalType": "bytes32",
          "name": "claimId",
          "type": "bytes32"
        },
        {
          "indexed": false,
          "internalType": "address",
          "name": "agent",
          "type": "address"
        },
        {
          "indexed": false,
          "internalType": "address",
          "name": "user",
          "type": "address"
        },
        {
          "indexed": false,
          "internalType": "string",
          "name": "pool",
          "type": "string"
        }
      ],
      "name": "ClaimSubmitted",
      "type": "event"
    },
    {
      "inputs": [
        {
          "internalType": "bytes32",
          "name": "",
          "type": "bytes32"
        }
      ],
      "name": "claims",
      "outputs": [
        {
          "internalType": "address",
          "name": "agent",
          "type": "address"
        },
        {
          "internalType": "address",
          "name": "user",
          "type": "address"
        },
        {
          "internalType": "string",
          "name": "selectedPool",
          "type": "string"
        },
        {
          "internalType": "uint256",
          "name": "timestamp",
          "type": "uint256"
        },
        {
          "internalType": "bool",
          "name": "disputed",
          "type": "bool"
        },
        {
          "internalType": "bool",
          "name": "resolved",
          "type": "bool"
        },
        {
          "internalType": "address",
          "name": "disputer",
          "type": "address"
        },
        {
          "internalType": "uint256",
          "name": "bondAmount",
          "type": "uint256"
        }
      ],
      "stateMutability": "view",
      "type": "function"
    },
    {
      "inputs": [
        {
          "internalType": "bytes32",
          "name": "claimId",
          "type": "bytes32"
        }
      ],
      "name": "disputeClaim",
      "outputs": [],
      "stateMutability": "nonpayable",
      "type": "function"
    },
    {
      "inputs": [],
      "name": "disputeWindow",
      "outputs": [
        {
          "internalType": "uint256",
          "name": "",
          "type": "uint256"
        }
      ],
      "stateMutability": "view",
      "type": "function"
    },
    {
      "inputs": [
        {
          "internalType": "bytes32",
          "name": "claimId",
          "type": "bytes32"
        }
      ],
      "name": "finalizeClaim",
      "outputs": [],
      "stateMutability": "nonpayable",
      "type": "function"
    },
    {
      "inputs": [],
      "name": "owner",
      "outputs": [
        {
          "internalType": "address",
          "name": "",
          "type": "address"
        }
      ],
      "stateMutability": "view",
      "type": "function"
    },
    {
      "inputs": [],
      "name": "requiredBond",
      "outputs": [
        {
          "internalType": "uint256",
          "name": "",
          "type": "uint256"
        }
      ],
      "stateMutability": "view",
      "type": "function"
    },
    {
      "inputs": [],
      "name": "rewardAmount",
      "outputs": [
        {
          "internalType": "uint256",
          "name": "",
          "type": "uint256"
        }
      ],
      "stateMutability": "view",
      "type": "function"
    },
    {
      "inputs": [
        {
          "internalType": "string",
          "name": "selectedPool",
          "type": "string"
        },
        {
          "internalType": "uint256",
          "name": "timestamp",
          "type": "uint256"
        },
        {
          "internalType": "address",
          "name": "user",
          "type": "address"
        }
      ],
      "name": "submitClaim",
      "outputs": [],
      "stateMutability": "payable",
      "type": "function"
    },
    {
      "inputs": [],
      "name": "testnetUSDC",
      "outputs": [
        {
          "internalType": "address",
          "name": "",
          "type": "address"
        }
      ],
      "stateMutability": "view",
      "type": "function"
    }
  ],
  "bytecode": "0x608060405261012c600155620f4240600255604051611e9f380380611e9f8339818101604052810190610032919061015b565b33600360006101000a81548173ffffffffffffffffffffffffffffffffffffffff021916908373ffffffffffffffffffffffffffffffffffffffff16021790555081600460006101000a81548173ffffffffffffffffffffffffffffffffffffffff021916908373ffffffffffffffffffffffffffffffffffffffff16021790555080600581905550505061019b565b600080fd5b600073ffffffffffffffffffffffffffffffffffffffff82169050919050565b60006100f2826100c7565b9050919050565b610102816100e7565b811461010d57600080fd5b50565b60008151905061011f816100f9565b92915050565b6000819050919050565b61013881610125565b811461014357600080fd5b50565b6000815190506101558161012f565b92915050565b60008060408385031215610172576101716100c2565b5b600061018085828601610110565b925050602061019185828601610146565b9150509250929050565b611cf5806101aa6000396000f3fe6080604052600436106100865760003560e01c80638b795663116100595780638b795663146101355780638da5cb5b1461015e578063abcc3b8314610189578063eff0f592146101a5578063f7b2a7be146101e957610086565b8063117f5f921461008b578063176d501b146100b65780633ff8bbf6146100e157806374e9be141461010c575b600080fd5b34801561009757600080fd5b506100a0610214565b6040516100ad9190610e4e565b60405180910390f35b3480156100c257600080fd5b506100cb61021a565b6040516100d89190610eaa565b60405180910390f35b3480156100ed57600080fd5b506100f6610240565b6040516101039190610e4e565b60405180910390f35b34801561011857600080fd5b50610133600480360381019061012e9190610f0f565b610246565b005b34801561014157600080fd5b5061015c60048036038101906101579190610f0f565b6107fa565b005b34801561016a57600080fd5b506101736109d8565b6040516101809190610eaa565b60405180910390f35b6101a3600480360381019061019e91906110da565b6109fe565b005b3480156101b157600080fd5b506101cc60048036038101906101c79190610f0f565b610ce5565b6040516101e09897969594939291906111e3565b60405180910390f35b3480156101f557600080fd5b506101fe610e2f565b60405161020b9190610e4e565b60405180910390f35b60015481565b600460009054906101000a900473ffffffffffffffffffffffffffffffffffffffff1681565b60055481565b6000806000838152602001908152602001600020905060008160030154116102a3576040517f08c379a000000000000000000000000000000000000000000000000000000000815260040161029a906112b4565b60405180910390fd5b60015481600301546102b59190611303565b42116102f6576040517f08c379a00000000000000000000000000000000000000000000000000000000081526004016102ed90611383565b60405180910390fd5b8060040160019054906101000a900460ff1615610348576040517f08c379a000000000000000000000000000000000000000000000000000000000815260040161033f906113ef565b60405180910390fd5b60018160040160016101000a81548160ff0219169083151502179055508060040160009054906101000a900460ff16156105bb5760008160040160029054906101000a900473ffffffffffffffffffffffffffffffffffffffff1673ffffffffffffffffffffffffffffffffffffffff1682600501546040516103ca90611440565b60006040518083038185875af1925050503d8060008114610407576040519150601f19603f3d011682016040523d82523d6000602084013e61040c565b606091505b5050905080610450576040517f08c379a0000000000000000000000000000000000000000000000000000000008152600401610447906114a1565b60405180910390fd5b600460009054906101000a900473ffffffffffffffffffffffffffffffffffffffff1673ffffffffffffffffffffffffffffffffffffffff1663a9059cbb8360040160029054906101000a900473ffffffffffffffffffffffffffffffffffffffff166002546040518363ffffffff1660e01b81526004016104d39291906114c1565b6020604051808303816000875af11580156104f2573d6000803e3d6000fd5b505050506040513d601f19601f820116820180604052508101906105169190611516565b610555576040517f08c379a000000000000000000000000000000000000000000000000000000000815260040161054c9061158f565b60405180910390fd5b7f17d2d6d4498c98274d02887d68582334a0158b025993cdde853e1a9e58be1d948360008460040160029054906101000a900473ffffffffffffffffffffffffffffffffffffffff166040516105ad939291906115be565b60405180910390a1506107f6565b60008160000160009054906101000a900473ffffffffffffffffffffffffffffffffffffffff1673ffffffffffffffffffffffffffffffffffffffff16826005015460405161060990611440565b60006040518083038185875af1925050503d8060008114610646576040519150601f19603f3d011682016040523d82523d6000602084013e61064b565b606091505b505090508061068f576040517f08c379a000000000000000000000000000000000000000000000000000000000815260040161068690611641565b60405180910390fd5b600460009054906101000a900473ffffffffffffffffffffffffffffffffffffffff1673ffffffffffffffffffffffffffffffffffffffff1663a9059cbb8360010160009054906101000a900473ffffffffffffffffffffffffffffffffffffffff166002546040518363ffffffff1660e01b81526004016107129291906114c1565b6020604051808303816000875af1158015610731573d6000803e3d6000fd5b505050506040513d601f19601f820116820180604052508101906107559190611516565b610794576040517f08c379a000000000000000000000000000000000000000000000000000000000815260040161078b906116ad565b60405180910390fd5b7f17d2d6d4498c98274d02887d68582334a0158b025993cdde853e1a9e58be1d948360018460010160009054906101000a900473ffffffffffffffffffffffffffffffffffffffff166040516107ec939291906115be565b60405180910390a1505b5050565b60008060008381526020019081526020016000206003015411610852576040517f08c379a0000000000000000000000000000000000000000000000000000000008152600401610849906112b4565b60405180910390fd5b600154600080838152602001908152602001600020600301546108759190611303565b4211156108b7576040517f08c379a00000000000000000000000000000000000000000000000000000000081526004016108ae90611719565b60405180910390fd5b60008082815260200190815260200160002060040160009054906101000a900460ff161561091a576040517f08c379a000000000000000000000000000000000000000000000000000000000815260040161091190611785565b60405180910390fd5b600160008083815260200190815260200160002060040160006101000a81548160ff0219169083151502179055503360008083815260200190815260200160002060040160026101000a81548173ffffffffffffffffffffffffffffffffffffffff021916908373ffffffffffffffffffffffffffffffffffffffff1602179055507fe6e6d0adeff82681e2d6ff32a754d871d0dd681a532bf74eeadfd3a02abe24f281336040516109cd9291906117a5565b60405180910390a150565b600360009054906101000a900473ffffffffffffffffffffffffffffffffffffffff1681565b6005543414610a42576040517f08c379a0000000000000000000000000000000000000000000000000000000008152600401610a399061181a565b60405180910390fd5b600033838584604051602001610a5b94939291906118df565b60405160208183030381529060405280519060200120905060008060008381526020019081526020016000206003015414610acb576040517f08c379a0000000000000000000000000000000000000000000000000000000008152600401610ac290611975565b60405180910390fd5b6040518061010001604052803373ffffffffffffffffffffffffffffffffffffffff1681526020018373ffffffffffffffffffffffffffffffffffffffff168152602001858152602001848152602001600015158152602001600015158152602001600073ffffffffffffffffffffffffffffffffffffffff1681526020013481525060008083815260200190815260200160002060008201518160000160006101000a81548173ffffffffffffffffffffffffffffffffffffffff021916908373ffffffffffffffffffffffffffffffffffffffff16021790555060208201518160010160006101000a81548173ffffffffffffffffffffffffffffffffffffffff021916908373ffffffffffffffffffffffffffffffffffffffff1602179055506040820151816002019081610c039190611ba1565b506060820151816003015560808201518160040160006101000a81548160ff02191690831515021790555060a08201518160040160016101000a81548160ff02191690831515021790555060c08201518160040160026101000a81548173ffffffffffffffffffffffffffffffffffffffff021916908373ffffffffffffffffffffffffffffffffffffffff16021790555060e082015181600501559050507fe0f1ee5807c8d8c0c7cc048167c0e899a8e688984e524a362f75c1cb1d51e4e781338487604051610cd79493929190611c73565b60405180910390a150505050565b60006020528060005260406000206000915090508060000160009054906101000a900473ffffffffffffffffffffffffffffffffffffffff16908060010160009054906101000a900473ffffffffffffffffffffffffffffffffffffffff1690806002018054610d54906119c4565b80601f0160208091040260200160405190810160405280929190818152602001828054610d80906119c4565b8015610dcd5780601f10610da257610100808354040283529160200191610dcd565b820191906000526020600020905b815481529060010190602001808311610db057829003601f168201915b5050505050908060030154908060040160009054906101000a900460ff16908060040160019054906101000a900460ff16908060040160029054906101000a900473ffffffffffffffffffffffffffffffffffffffff16908060050154905088565b60025481565b6000819050919050565b610e4881610e35565b82525050565b6000602082019050610e636000830184610e3f565b92915050565b600073ffffffffffffffffffffffffffffffffffffffff82169050919050565b6000610e9482610e69565b9050919050565b610ea481610e89565b82525050565b6000602082019050610ebf6000830184610e9b565b92915050565b6000604051905090565b600080fd5b600080fd5b6000819050919050565b610eec81610ed9565b8114610ef757600080fd5b50565b600081359050610f0981610ee3565b92915050565b600060208284031215610f2557610f24610ecf565b5b6000610f3384828501610efa565b91505092915050565b600080fd5b600080fd5b6000601f19601f8301169050919050565b7f4e487b7100000000000000000000000000000000000000000000000000000000600052604160045260246000fd5b610f8f82610f46565b810181811067ffffffffffffffff82111715610fae57610fad610f57565b5b80604052505050565b6000610fc1610ec5565b9050610fcd8282610f86565b919050565b600067ffffffffffffffff821115610fed57610fec610f57565b5b610ff682610f46565b9050602081019050919050565b82818337600083830152505050565b600061102561102084610fd2565b610fb7565b90508281526020810184848401111561104157611040610f41565b5b61104c848285611003565b509392505050565b600082601f83011261106957611068610f3c565b5b8135611079848260208601611012565b91505092915050565b61108b81610e35565b811461109657600080fd5b50565b6000813590506110a881611082565b92915050565b6110b781610e89565b81146110c257600080fd5b50565b6000813590506110d4816110ae565b92915050565b6000806000606084860312156110f3576110f2610ecf565b5b600084013567ffffffffffffffff81111561111157611110610ed4565b5b61111d86828701611054565b935050602061112e86828701611099565b925050604061113f868287016110c5565b9150509250925092565b600081519050919050565b600082825260208201905092915050565b60005b83811015611183578082015181840152602081019050611168565b60008484015250505050565b600061119a82611149565b6111a48185611154565b93506111b4818560208601611165565b6111bd81610f46565b840191505092915050565b60008115159050919050565b6111dd816111c8565b82525050565b6000610100820190506111f9600083018b610e9b565b611206602083018a610e9b565b8181036040830152611218818961118f565b90506112276060830188610e3f565b61123460808301876111d4565b61124160a08301866111d4565b61124e60c0830185610e9b565b61125b60e0830184610e3f565b9998505050505050505050565b7f436c61696d20646f6573206e6f74206578697374000000000000000000000000600082015250565b600061129e601483611154565b91506112a982611268565b602082019050919050565b600060208201905081810360008301526112cd81611291565b9050919050565b7f4e487b7100000000000000000000000000000000000000000000000000000000600052601160045260246000fd5b600061130e82610e35565b915061131983610e35565b9250828201905080821115611331576113306112d4565b5b92915050565b7f446973707574652077696e646f77206e6f74206f766572000000000000000000600082015250565b600061136d601783611154565b915061137882611337565b602082019050919050565b6000602082019050818103600083015261139c81611360565b9050919050565b7f436c61696d20616c7265616479207265736f6c76656400000000000000000000600082015250565b60006113d9601683611154565b91506113e4826113a3565b602082019050919050565b60006020820190508181036000830152611408816113cc565b9050919050565b600081905092915050565b50565b600061142a60008361140f565b91506114358261141a565b600082019050919050565b600061144b8261141d565b9150819050919050565b7f446973707574657220626f6e6420726566756e64206661696c65640000000000600082015250565b600061148b601b83611154565b915061149682611455565b602082019050919050565b600060208201905081810360008301526114ba8161147e565b9050919050565b60006040820190506114d66000830185610e9b565b6114e36020830184610e3f565b9392505050565b6114f3816111c8565b81146114fe57600080fd5b50565b600081519050611510816114ea565b92915050565b60006020828403121561152c5761152b610ecf565b5b600061153a84828501611501565b91505092915050565b7f4469737075746520726577617264207472616e73666572206661696c65640000600082015250565b6000611579601e83611154565b915061158482611543565b602082019050919050565b600060208201905081810360008301526115a88161156c565b9050919050565b6115b881610ed9565b82525050565b60006060820190506115d360008301866115af565b6115e060208301856111d4565b6115ed6040830184610e9b565b949350505050565b7f4167656e7420626f6e6420726566756e64206661696c65640000000000000000600082015250565b600061162b601883611154565b9150611636826115f5565b602082019050919050565b6000602082019050818103600083015261165a8161161e565b9050919050565b7f5573657220726577617264207472616e73666572206661696c65640000000000600082015250565b6000611697601b83611154565b91506116a282611661565b602082019050919050565b600060208201905081810360008301526116c68161168a565b9050919050565b7f446973707574652077696e646f77207061737365640000000000000000000000600082015250565b6000611703601583611154565b915061170e826116cd565b602082019050919050565b60006020820190508181036000830152611732816116f6565b9050919050565b7f416c726561647920646973707574656400000000000000000000000000000000600082015250565b600061176f601083611154565b915061177a82611739565b602082019050919050565b6000602082019050818103600083015261179e81611762565b9050919050565b60006040820190506117ba60008301856115af565b6117c76020830184610e9b565b9392505050565b7f496e636f727265637420626f6e6420616d6f756e740000000000000000000000600082015250565b6000611804601583611154565b915061180f826117ce565b602082019050919050565b60006020820190508181036000830152611833816117f7565b9050919050565b60008160601b9050919050565b60006118528261183a565b9050919050565b600061186482611847565b9050919050565b61187c61187782610e89565b611859565b82525050565b6000819050919050565b61189d61189882610e35565b611882565b82525050565b600081905092915050565b60006118b982611149565b6118c381856118a3565b93506118d3818560208601611165565b80840191505092915050565b60006118eb828761186b565b6014820191506118fb828661188c565b60208201915061190b82856118ae565b9150611917828461186b565b60148201915081905095945050505050565b7f436c61696d20616c726561647920657869737473000000000000000000000000600082015250565b600061195f601483611154565b915061196a82611929565b602082019050919050565b6000602082019050818103600083015261198e81611952565b9050919050565b7f4e487b7100000000000000000000000000000000000000000000000000000000600052602260045260246000fd5b600060028204905060018216806119dc57607f821691505b6020821081036119ef576119ee611995565b5b50919050565b60008190508160005260206000209050919050565b60006020601f8301049050919050565b600082821b905092915050565b600060088302611a577fffffffffffffffffffffffffffffffffffffffffffffffffffffffffffffffff82611a1a565b611a618683611a1a565b95508019841693508086168417925050509392505050565b6000819050919050565b6000611a9e611a99611a9484610e35565b611a79565b610e35565b9050919050565b6000819050919050565b611ab883611a83565b611acc611ac482611aa5565b848454611a27565b825550505050565b600090565b611ae1611ad4565b611aec818484611aaf565b505050565b5b81811015611b1057611b05600082611ad9565b600181019050611af2565b5050565b601f821115611b5557611b26816119f5565b611b2f84611a0a565b81016020851015611b3e578190505b611b52611b4a85611a0a565b830182611af1565b50505b505050565b600082821c905092915050565b6000611b7860001984600802611b5a565b1980831691505092915050565b6000611b918383611b67565b9150826002028217905092915050565b611baa82611149565b67ffffffffffffffff811115611bc357611bc2610f57565b5b611bcd82546119c4565b611bd8828285611b14565b600060209050601f831160018114611c0b5760008415611bf9578287015190505b611c038582611b85565b865550611c6b565b601f198416611c19866119f5565b60005b82811015611c4157848901518255600182019150602085019450602081019050611c1c565b86831015611c5e5784890151611c5a601f891682611b67565b8355505b6001600288020188555050505b505050505050565b6000608082019050611c8860008301876115af565b611c956020830186610e9b565b611ca26040830185610e9b565b8181036060830152611cb4818461118f565b90509594505050505056fea2646970667358221220bd0090116421dc7b724b9b563ff9b1eea005ac7d5406555cd7abdec23a16f23764736f6c634300081c0033",
  "linkReferences": {},
  "deployedLinkReferences": {}
}